:020000020000FC
:040000000C942B0130
:04000C000C94B6009A
:040014000C94E00068
:04002C000C9402012D
:100050000C94A800410A460A45535441205041528D
:1000600041444F275C6E27001F902F90E91BF04002
:10007000CA95949131979093C600C030C9F72F92DA
:100080001F9208950BB1103031F0113039F0123059
:1000900049F00C945600037F0C9456000B7F0860C7
:1000A0000C945600077F04600C9456000BB9089519
:1000B00005B1006205B9089505B10F7D05B9089530
:1000C00005B1026005B9089505B10D7F05B9089520
:1000D000C2E0E4E5F0E00E9434000E9483004E7F1D
:1000E0000E9458000E947F00089541600E946400B1
:1000F0000E945C000E948A000E94830008950CE028
:1001000000938100089500E000938500009384002F
:1001100030E0089500E00093810008956F935F93AD
:100120004F9360E05AEF40E0415050406040E0F7AC
:100130004F915F916F9108950F9300E00093C1007C
:100140000F9108950F9308E40093C1000F91089553
:100150001895F894703041F00F916F918F918093C2
:10016000C6007A950F936F9378941895F89463B1BD
:100170000E948E0060FD0C94D30062FD0C94C800B8
:1001800063FD0C94CD0064FD0C94D0000C94DE0053
:100190000E94580020640C94DE0020620C94DE0063
:1001A00020610C94DE008FE08093C60040FD0C942B
:1001B000DE0041FF0E9475000C94DE0078941895D3
:1001C000F8940E948E0069B164FD0C94F20065FD04
:1001D0000C94F50066FD0C94F80067FD0C94FB0090
:1001E0000C94000124600C94000122600C94000126
:1001F00021600C94000141FF0E9468000C940001F2
:1002000078941895F8943F5F41FD0C941D0140FDD2
:100210000C942901353021F03A3031F00C94290149
:100220000E9460000C9429010E94640041600E94B9
:100230008A000E9483000C942901333011F00C9441
:100240002901152F4D7F0E948A000E9483000C9483
:10025000290178941895F89402E204B90CE00AB9DF
:10026000E4E5F0E0049100E00093C50007E60093A8
:10027000C40006E00093C20008E90093C10000E05A
:100280000093C50007E60093C40006E00093C20097
:100290000E94A20005E0009368000DE100936B004E
:1002A00000EF00936D0004EF0093890004E20093D7
:1002B000880000E00093800000916F0002600093CE
:1002C0006F000FEF0DBF08E00EBF0E948A000E9472
:1002D000830010E041E00E94750070E0E093C600EA
:1002E00078940E94420041FD08C040FF07C05117AA
:1002F00029F0426004DF02C0F4CFF3CF103029F0C0
:100300001130B1F0123049F1ECCF22FD0BC026FDC7
:1003100009C020FD0BC024FD09C021FD07C025FD3B
:1003200005C0DFCF0E9468002B7BDBCF51E0D9CF27
:1003300021FD0AC025FD08C020FDF8CF24FDF6CF21
:1003400021FDF4CF25FDF2CF0E94680082E22D7DD1
:10035000C8CF52E0C6CF50E0C4CF20FD0AC024FD74
:1003600008C020FDE3CF24FDE1CF21FDDFCF25FD37
:0E037000DDCF0E9468002E7EB4CF51E0B2CFE8
:00000001FF
