:020000020000FC
:040000000C949600C6
:04000C000C945700F9
:040014000C947500D3
:04002C000C9493009D
:100050000C945500506F727461732046656368613B
:100060006E646F00506F7274617320416272696ECA
:10007000646F0CE000938100089500E00093850018
:1000800000938400089500E00093810008956F9329
:100090005F934F9360E05AEF40E041505040604022
:1000A000E0F74F915F916F91089500001895F894D3
:1000B0006F9363B10E94470060FD0C94700062FD75
:1000C0000C946A0063FD0C946C0064FD0C946E004B
:1000D0000C9472000C9472000C9472000C947200D8
:1000E0000C9472006F9178941895F8946F9369B19D
:1000F0000E94470064FD0C94880065FD0C948A0002
:1001000066FD0C948C0067FD0C948E000C9490009E
:100110000C9490000C9490000C9490000C9490001F
:100120006F917894189501E000001895F894E4E533
:10013000F0E0049100E00093C50007E60093C400DE
:1001400008E00093C10006E00093C20008E40093B9
:10015000C10005E0009368000DE100936B0000EF23
:1001600000936D000AE70093890002E10093880084
:1001700000E00093800000916F00026000936F0028
:100180000FEF0DBF08E00EBF0E9443000E943D002C
:1001900010E041E0789441FD08C040FF07C05117CE
:1001A00029F0426066DF02C0F6CFF5CF103029F0AB
:1001B000113099F0123019F1EECF22FD0AC026FD60
:1001C00008C020FD08C024FD06C021FD04C025FD97
:1001D00002C02E7FE0CF51E0DECF21FD0AC025FD19
:1001E00008C020FDF8CF24FDF6CF21FDF4CF25FD7A
:1001F000F2CF2E7FD0CF52E0CECF50E0CCCF20FD3B
:100200000AC024FD08C020FDE6CF24FDE4CF21FD77
:0E021000E2CF25FDE0CF2E7FBECF51E0BCCF68
:00000001FF
