:020000020000FC
:040000000C947300E9
:04000C000C9434001C
:040014000C945200F6
:10002C000C9470000CE000938100089500E00093A4
:10003C00850000938400089500E0009381000895EA
:10004C006F935F934F9360E05AEF40E04150504004
:10005C006040E0F74F915F916F910895F8946F9322
:10006C0063B10E94260060FD0C944D0062FD0C945F
:10007C00470063FD0C94490064FD0C944B000C94F8
:10008C004F000C944F000C944F000C944F000C94A8
:10009C004F006F9178941895F8946F9369B10E9402
:1000AC00260064FD0C94650065FD0C94670066FDEC
:1000BC000C94690067FD0C946B000C946D000C940F
:1000CC006D000C946D000C946D000C946D006F9190
:1000DC007894189501E000001895F89405E00093C9
:1000EC0068000DE100936B0000EF00936D000AE7D0
:1000FC000093890002E10093880000E000938000E7
:10010C000E94180000916F00026000936F000FEFC7
:10011C000DBF08E00EBF4160789441FD0C949A002D
:10012C0040FF0C949B00F9CFF8CF2030E4F3F5CFCF
:00000001FF
